{
  "contractName": "WIP",
  "abi": [
    {
      "inputs": [],
      "stateMutability": "nonpayable",
      "type": "constructor"
    },
    {
      "anonymous": false,
      "inputs": [
        {
          "indexed": true,
          "internalType": "address",
          "name": "owner",
          "type": "address"
        },
        {
          "indexed": true,
          "internalType": "address",
          "name": "spender",
          "type": "address"
        },
        {
          "indexed": false,
          "internalType": "uint256",
          "name": "value",
          "type": "uint256"
        }
      ],
      "name": "Approval",
      "type": "event"
    },
    {
      "anonymous": false,
      "inputs": [
        {
          "indexed": true,
          "internalType": "address",
          "name": "delegator",
          "type": "address"
        },
        {
          "indexed": true,
          "internalType": "address",
          "name": "fromDelegate",
          "type": "address"
        },
        {
          "indexed": true,
          "internalType": "address",
          "name": "toDelegate",
          "type": "address"
        }
      ],
      "name": "DelegateChanged",
      "type": "event"
    },
    {
      "anonymous": false,
      "inputs": [
        {
          "indexed": true,
          "internalType": "address",
          "name": "delegate",
          "type": "address"
        },
        {
          "indexed": false,
          "internalType": "uint256",
          "name": "previousBalance",
          "type": "uint256"
        },
        {
          "indexed": false,
          "internalType": "uint256",
          "name": "newBalance",
          "type": "uint256"
        }
      ],
      "name": "DelegateVotesChanged",
      "type": "event"
    },
    {
      "anonymous": false,
      "inputs": [
        {
          "indexed": true,
          "internalType": "address",
          "name": "previousOwner",
          "type": "address"
        },
        {
          "indexed": true,
          "internalType": "address",
          "name": "newOwner",
          "type": "address"
        }
      ],
      "name": "OwnershipTransferred",
      "type": "event"
    },
    {
      "anonymous": false,
      "inputs": [
        {
          "indexed": false,
          "internalType": "address",
          "name": "account",
          "type": "address"
        }
      ],
      "name": "Paused",
      "type": "event"
    },
    {
      "anonymous": false,
      "inputs": [
        {
          "indexed": true,
          "internalType": "address",
          "name": "from",
          "type": "address"
        },
        {
          "indexed": true,
          "internalType": "address",
          "name": "to",
          "type": "address"
        },
        {
          "indexed": false,
          "internalType": "uint256",
          "name": "value",
          "type": "uint256"
        }
      ],
      "name": "Transfer",
      "type": "event"
    },
    {
      "anonymous": false,
      "inputs": [
        {
          "indexed": false,
          "internalType": "address",
          "name": "account",
          "type": "address"
        }
      ],
      "name": "Unpaused",
      "type": "event"
    },
    {
      "inputs": [],
      "name": "DOMAIN_SEPARATOR",
      "outputs": [
        {
          "internalType": "bytes32",
          "name": "",
          "type": "bytes32"
        }
      ],
      "stateMutability": "view",
      "type": "function"
    },
    {
      "inputs": [
        {
          "internalType": "address",
          "name": "owner",
          "type": "address"
        },
        {
          "internalType": "address",
          "name": "spender",
          "type": "address"
        }
      ],
      "name": "allowance",
      "outputs": [
        {
          "internalType": "uint256",
          "name": "",
          "type": "uint256"
        }
      ],
      "stateMutability": "view",
      "type": "function"
    },
    {
      "inputs": [
        {
          "internalType": "address",
          "name": "spender",
          "type": "address"
        },
        {
          "internalType": "uint256",
          "name": "amount",
          "type": "uint256"
        }
      ],
      "name": "approve",
      "outputs": [
        {
          "internalType": "bool",
          "name": "",
          "type": "bool"
        }
      ],
      "stateMutability": "nonpayable",
      "type": "function"
    },
    {
      "inputs": [
        {
          "internalType": "address",
          "name": "account",
          "type": "address"
        }
      ],
      "name": "balanceOf",
      "outputs": [
        {
          "internalType": "uint256",
          "name": "",
          "type": "uint256"
        }
      ],
      "stateMutability": "view",
      "type": "function"
    },
    {
      "inputs": [
        {
          "internalType": "uint256",
          "name": "amount",
          "type": "uint256"
        }
      ],
      "name": "burn",
      "outputs": [],
      "stateMutability": "nonpayable",
      "type": "function"
    },
    {
      "inputs": [
        {
          "internalType": "address",
          "name": "account",
          "type": "address"
        },
        {
          "internalType": "uint256",
          "name": "amount",
          "type": "uint256"
        }
      ],
      "name": "burnFrom",
      "outputs": [],
      "stateMutability": "nonpayable",
      "type": "function"
    },
    {
      "inputs": [
        {
          "internalType": "address",
          "name": "account",
          "type": "address"
        },
        {
          "internalType": "uint32",
          "name": "pos",
          "type": "uint32"
        }
      ],
      "name": "checkpoints",
      "outputs": [
        {
          "components": [
            {
              "internalType": "uint32",
              "name": "fromBlock",
              "type": "uint32"
            },
            {
              "internalType": "uint224",
              "name": "votes",
              "type": "uint224"
            }
          ],
          "internalType": "struct ERC20Votes.Checkpoint",
          "name": "",
          "type": "tuple"
        }
      ],
      "stateMutability": "view",
      "type": "function"
    },
    {
      "inputs": [],
      "name": "commentThreshold",
      "outputs": [
        {
          "internalType": "uint256",
          "name": "",
          "type": "uint256"
        }
      ],
      "stateMutability": "view",
      "type": "function"
    },
    {
      "inputs": [],
      "name": "decimals",
      "outputs": [
        {
          "internalType": "uint8",
          "name": "",
          "type": "uint8"
        }
      ],
      "stateMutability": "view",
      "type": "function"
    },
    {
      "inputs": [
        {
          "internalType": "address",
          "name": "spender",
          "type": "address"
        },
        {
          "internalType": "uint256",
          "name": "subtractedValue",
          "type": "uint256"
        }
      ],
      "name": "decreaseAllowance",
      "outputs": [
        {
          "internalType": "bool",
          "name": "",
          "type": "bool"
        }
      ],
      "stateMutability": "nonpayable",
      "type": "function"
    },
    {
      "inputs": [
        {
          "internalType": "address",
          "name": "delegatee",
          "type": "address"
        }
      ],
      "name": "delegate",
      "outputs": [],
      "stateMutability": "nonpayable",
      "type": "function"
    },
    {
      "inputs": [
        {
          "internalType": "address",
          "name": "delegatee",
          "type": "address"
        },
        {
          "internalType": "uint256",
          "name": "nonce",
          "type": "uint256"
        },
        {
          "internalType": "uint256",
          "name": "expiry",
          "type": "uint256"
        },
        {
          "internalType": "uint8",
          "name": "v",
          "type": "uint8"
        },
        {
          "internalType": "bytes32",
          "name": "r",
          "type": "bytes32"
        },
        {
          "internalType": "bytes32",
          "name": "s",
          "type": "bytes32"
        }
      ],
      "name": "delegateBySig",
      "outputs": [],
      "stateMutability": "nonpayable",
      "type": "function"
    },
    {
      "inputs": [
        {
          "internalType": "address",
          "name": "account",
          "type": "address"
        }
      ],
      "name": "delegates",
      "outputs": [
        {
          "internalType": "address",
          "name": "",
          "type": "address"
        }
      ],
      "stateMutability": "view",
      "type": "function"
    },
    {
      "inputs": [
        {
          "internalType": "uint256",
          "name": "blockNumber",
          "type": "uint256"
        }
      ],
      "name": "getPastTotalSupply",
      "outputs": [
        {
          "internalType": "uint256",
          "name": "",
          "type": "uint256"
        }
      ],
      "stateMutability": "view",
      "type": "function"
    },
    {
      "inputs": [
        {
          "internalType": "address",
          "name": "account",
          "type": "address"
        },
        {
          "internalType": "uint256",
          "name": "blockNumber",
          "type": "uint256"
        }
      ],
      "name": "getPastVotes",
      "outputs": [
        {
          "internalType": "uint256",
          "name": "",
          "type": "uint256"
        }
      ],
      "stateMutability": "view",
      "type": "function"
    },
    {
      "inputs": [
        {
          "internalType": "address",
          "name": "account",
          "type": "address"
        }
      ],
      "name": "getVotes",
      "outputs": [
        {
          "internalType": "uint256",
          "name": "",
          "type": "uint256"
        }
      ],
      "stateMutability": "view",
      "type": "function"
    },
    {
      "inputs": [
        {
          "internalType": "address",
          "name": "spender",
          "type": "address"
        },
        {
          "internalType": "uint256",
          "name": "addedValue",
          "type": "uint256"
        }
      ],
      "name": "increaseAllowance",
      "outputs": [
        {
          "internalType": "bool",
          "name": "",
          "type": "bool"
        }
      ],
      "stateMutability": "nonpayable",
      "type": "function"
    },
    {
      "inputs": [],
      "name": "name",
      "outputs": [
        {
          "internalType": "string",
          "name": "",
          "type": "string"
        }
      ],
      "stateMutability": "view",
      "type": "function"
    },
    {
      "inputs": [
        {
          "internalType": "address",
          "name": "owner",
          "type": "address"
        }
      ],
      "name": "nonces",
      "outputs": [
        {
          "internalType": "uint256",
          "name": "",
          "type": "uint256"
        }
      ],
      "stateMutability": "view",
      "type": "function"
    },
    {
      "inputs": [
        {
          "internalType": "address",
          "name": "account",
          "type": "address"
        }
      ],
      "name": "numCheckpoints",
      "outputs": [
        {
          "internalType": "uint32",
          "name": "",
          "type": "uint32"
        }
      ],
      "stateMutability": "view",
      "type": "function"
    },
    {
      "inputs": [],
      "name": "owner",
      "outputs": [
        {
          "internalType": "address",
          "name": "",
          "type": "address"
        }
      ],
      "stateMutability": "view",
      "type": "function"
    },
    {
      "inputs": [],
      "name": "paused",
      "outputs": [
        {
          "internalType": "bool",
          "name": "",
          "type": "bool"
        }
      ],
      "stateMutability": "view",
      "type": "function"
    },
    {
      "inputs": [
        {
          "internalType": "address",
          "name": "owner",
          "type": "address"
        },
        {
          "internalType": "address",
          "name": "spender",
          "type": "address"
        },
        {
          "internalType": "uint256",
          "name": "value",
          "type": "uint256"
        },
        {
          "internalType": "uint256",
          "name": "deadline",
          "type": "uint256"
        },
        {
          "internalType": "uint8",
          "name": "v",
          "type": "uint8"
        },
        {
          "internalType": "bytes32",
          "name": "r",
          "type": "bytes32"
        },
        {
          "internalType": "bytes32",
          "name": "s",
          "type": "bytes32"
        }
      ],
      "name": "permit",
      "outputs": [],
      "stateMutability": "nonpayable",
      "type": "function"
    },
    {
      "inputs": [],
      "name": "postThreshold",
      "outputs": [
        {
          "internalType": "uint256",
          "name": "",
          "type": "uint256"
        }
      ],
      "stateMutability": "view",
      "type": "function"
    },
    {
      "inputs": [],
      "name": "renounceOwnership",
      "outputs": [],
      "stateMutability": "nonpayable",
      "type": "function"
    },
    {
      "inputs": [],
      "name": "symbol",
      "outputs": [
        {
          "internalType": "string",
          "name": "",
          "type": "string"
        }
      ],
      "stateMutability": "view",
      "type": "function"
    },
    {
      "inputs": [],
      "name": "totalSupply",
      "outputs": [
        {
          "internalType": "uint256",
          "name": "",
          "type": "uint256"
        }
      ],
      "stateMutability": "view",
      "type": "function"
    },
    {
      "inputs": [
        {
          "internalType": "address",
          "name": "recipient",
          "type": "address"
        },
        {
          "internalType": "uint256",
          "name": "amount",
          "type": "uint256"
        }
      ],
      "name": "transfer",
      "outputs": [
        {
          "internalType": "bool",
          "name": "",
          "type": "bool"
        }
      ],
      "stateMutability": "nonpayable",
      "type": "function"
    },
    {
      "inputs": [
        {
          "internalType": "address",
          "name": "sender",
          "type": "address"
        },
        {
          "internalType": "address",
          "name": "recipient",
          "type": "address"
        },
        {
          "internalType": "uint256",
          "name": "amount",
          "type": "uint256"
        }
      ],
      "name": "transferFrom",
      "outputs": [
        {
          "internalType": "bool",
          "name": "",
          "type": "bool"
        }
      ],
      "stateMutability": "nonpayable",
      "type": "function"
    },
    {
      "inputs": [
        {
          "internalType": "address",
          "name": "newOwner",
          "type": "address"
        }
      ],
      "name": "transferOwnership",
      "outputs": [],
      "stateMutability": "nonpayable",
      "type": "function"
    },
    {
      "inputs": [
        {
          "internalType": "uint256",
          "name": "newThreshold",
          "type": "uint256"
        }
      ],
      "name": "changePostThreshold",
      "outputs": [],
      "stateMutability": "nonpayable",
      "type": "function"
    },
    {
      "inputs": [
        {
          "internalType": "uint256",
          "name": "newThreshold",
          "type": "uint256"
        }
      ],
      "name": "changeCommentThreshold",
      "outputs": [],
      "stateMutability": "nonpayable",
      "type": "function"
    },
    {
      "inputs": [
        {
          "internalType": "address",
          "name": "from",
          "type": "address"
        }
      ],
      "name": "canPost",
      "outputs": [
        {
          "internalType": "bool",
          "name": "",
          "type": "bool"
        }
      ],
      "stateMutability": "view",
      "type": "function"
    },
    {
      "inputs": [
        {
          "internalType": "address",
          "name": "from",
          "type": "address"
        }
      ],
      "name": "canComment",
      "outputs": [
        {
          "internalType": "bool",
          "name": "",
          "type": "bool"
        }
      ],
      "stateMutability": "view",
      "type": "function"
    },
    {
      "inputs": [],
      "name": "pause",
      "outputs": [],
      "stateMutability": "nonpayable",
      "type": "function"
    },
    {
      "inputs": [],
      "name": "unpause",
      "outputs": [],
      "stateMutability": "nonpayable",
      "type": "function"
    },
    {
      "inputs": [
        {
          "internalType": "address",
          "name": "to",
          "type": "address"
        },
        {
          "internalType": "uint256",
          "name": "amount",
          "type": "uint256"
        }
      ],
      "name": "mint",
      "outputs": [],
      "stateMutability": "nonpayable",
      "type": "function"
    }
  ],
  "bytecode": "0x6101406040527f6e71edae12b1b97f4d1f60370fef10105fa2faae0126114a169c64845d6126c9610120908152503480156200003a57600080fd5b506040518060400160405280600381526020017f5749500000000000000000000000000000000000000000000000000000000000815250806040518060400160405280600181526020017f31000000000000000000000000000000000000000000000000000000000000008152506040518060400160405280600381526020017f57495000000000000000000000000000000000000000000000000000000000008152506040518060400160405280600381526020017f574950000000000000000000000000000000000000000000000000000000000081525081600390805190602001906200012c92919062000d6b565b5080600490805190602001906200014592919062000d6b565b5050506000600560006101000a81548160ff0219169083151502179055506200018362000177620002aa60201b60201c565b620002b260201b60201c565b60008280519060200120905060008280519060200120905060007f8b73c3c69bb8fe3d512ecc4cf759cc79239f7b179b0ffacaa9a75d522b39400f90508260c081815250508160e081815250504660a08181525050620001eb8184846200037860201b60201c565b60808181525050806101008181525050505050505050620002403362000216620003b460201b60201c565b600a62000224919062000fb5565b620f424062000234919062001006565b620003bd60201b60201c565b62000250620003b460201b60201c565b600a6200025e919062000fb5565b60646200026c919062001006565b600a8190555062000282620003b460201b60201c565b600a62000290919062000fb5565b60196200029e919062001006565b600b8190555062001567565b600033905090565b6000600560019054906101000a900473ffffffffffffffffffffffffffffffffffffffff16905081600560016101000a81548173ffffffffffffffffffffffffffffffffffffffff021916908373ffffffffffffffffffffffffffffffffffffffff1602179055508173ffffffffffffffffffffffffffffffffffffffff168173ffffffffffffffffffffffffffffffffffffffff167f8be0079c531659141344cd1fd0a4f28419497f9722a3daafe3b4186f6b6457e060405160405180910390a35050565b6000838383463060405160200162000395959493929190620010d8565b6040516020818303038152906040528051906020012090509392505050565b60006012905090565b620003d48282620003d860201b6200180d1760201c565b5050565b620003ef82826200049660201b6200189a1760201c565b620003ff6200060e60201b60201c565b7bffffffffffffffffffffffffffffffffffffffffffffffffffffffff166200042d6200063260201b60201c565b111562000471576040517f08c379a00000000000000000000000000000000000000000000000000000000081526004016200046890620011bc565b60405180910390fd5b6200049060096200063c60201b620019f917836200065460201b60201c565b50505050565b600073ffffffffffffffffffffffffffffffffffffffff168273ffffffffffffffffffffffffffffffffffffffff160362000508576040517f08c379a0000000000000000000000000000000000000000000000000000000008152600401620004ff906200122e565b60405180910390fd5b6200051c600083836200090560201b60201c565b806002600082825462000530919062001250565b92505081905550806000808473ffffffffffffffffffffffffffffffffffffffff1673ffffffffffffffffffffffffffffffffffffffff168152602001908152602001600020600082825462000587919062001250565b925050819055508173ffffffffffffffffffffffffffffffffffffffff16600073ffffffffffffffffffffffffffffffffffffffff167fddf252ad1be2c89b69c2b068fc378daa952ba7f163c4a11628f55a4df523b3ef83604051620005ee9190620012ad565b60405180910390a36200060a600083836200097560201b60201c565b5050565b60007bffffffffffffffffffffffffffffffffffffffffffffffffffffffff905090565b6000600254905090565b600081836200064c919062001250565b905092915050565b60008060008580549050905060008114620006c95785600182620006799190620012ca565b815481106200068d576200068c62001305565b5b9060005260206000200160000160049054906101000a90047bffffffffffffffffffffffffffffffffffffffffffffffffffffffff16620006cc565b60005b7bffffffffffffffffffffffffffffffffffffffffffffffffffffffff169250620006f883858760201c565b91506000811180156200075157504386600183620007179190620012ca565b815481106200072b576200072a62001305565b5b9060005260206000200160000160009054906101000a900463ffffffff1663ffffffff16145b15620007f2576200076d826200099260201b62001a0f1760201c565b866001836200077d9190620012ca565b8154811062000791576200079062001305565b5b9060005260206000200160000160046101000a8154817bffffffffffffffffffffffffffffffffffffffffffffffffffffffff02191690837bffffffffffffffffffffffffffffffffffffffffffffffffffffffff160217905550620008fc565b856040518060400160405280620008144362000a0060201b62001a7a1760201c565b63ffffffff16815260200162000835856200099260201b62001a0f1760201c565b7bffffffffffffffffffffffffffffffffffffffffffffffffffffffff168152509080600181540180825580915050600190039060005260206000200160009091909190915060008201518160000160006101000a81548163ffffffff021916908363ffffffff16021790555060208201518160000160046101000a8154817bffffffffffffffffffffffffffffffffffffffffffffffffffffffff02191690837bffffffffffffffffffffffffffffffffffffffffffffffffffffffff16021790555050505b50935093915050565b6200091562000a5660201b60201c565b1562000958576040517f08c379a00000000000000000000000000000000000000000000000000000000081526004016200094f9062001384565b60405180910390fd5b6200097083838362000a6d60201b62001acd1760201c565b505050565b6200098d83838362000a7260201b62001ad21760201c565b505050565b60007bffffffffffffffffffffffffffffffffffffffffffffffffffffffff8016821115620009f8576040517f08c379a0000000000000000000000000000000000000000000000000000000008152600401620009ef906200141c565b60405180910390fd5b819050919050565b600063ffffffff801682111562000a4e576040517f08c379a000000000000000000000000000000000000000000000000000000000815260040162000a4590620014b4565b60405180910390fd5b819050919050565b6000600560009054906101000a900460ff16905090565b505050565b62000a8a83838362000ac260201b62001afd1760201c565b62000abd62000a9f8462000ac760201b60201c565b62000ab08462000ac760201b60201c565b8362000b3060201b60201c565b505050565b505050565b6000600760008373ffffffffffffffffffffffffffffffffffffffff1673ffffffffffffffffffffffffffffffffffffffff16815260200190815260200160002060009054906101000a900473ffffffffffffffffffffffffffffffffffffffff169050919050565b8173ffffffffffffffffffffffffffffffffffffffff168373ffffffffffffffffffffffffffffffffffffffff161415801562000b6d5750600081115b1562000d4e57600073ffffffffffffffffffffffffffffffffffffffff168373ffffffffffffffffffffffffffffffffffffffff161462000c605760008062000c07600860008773ffffffffffffffffffffffffffffffffffffffff1673ffffffffffffffffffffffffffffffffffffffff16815260200190815260200160002062000d5360201b62001b0217856200065460201b60201c565b915091508473ffffffffffffffffffffffffffffffffffffffff167fdec2bacdd2f05b59de34da9b523dff8be42e5e38e818c82fdb0bae774387a724838360405162000c55929190620014d6565b60405180910390a250505b600073ffffffffffffffffffffffffffffffffffffffff168273ffffffffffffffffffffffffffffffffffffffff161462000d4d5760008062000cf4600860008673ffffffffffffffffffffffffffffffffffffffff1673ffffffffffffffffffffffffffffffffffffffff1681526020019081526020016000206200063c60201b620019f917856200065460201b60201c565b915091508373ffffffffffffffffffffffffffffffffffffffff167fdec2bacdd2f05b59de34da9b523dff8be42e5e38e818c82fdb0bae774387a724838360405162000d42929190620014d6565b60405180910390a250505b5b505050565b6000818362000d639190620012ca565b905092915050565b82805462000d799062001532565b90600052602060002090601f01602090048101928262000d9d576000855562000de9565b82601f1062000db857805160ff191683800117855562000de9565b8280016001018555821562000de9579182015b8281111562000de857825182559160200191906001019062000dcb565b5b50905062000df8919062000dfc565b5090565b5b8082111562000e1757600081600090555060010162000dfd565b5090565b7f4e487b7100000000000000000000000000000000000000000000000000000000600052601160045260246000fd5b60008160011c9050919050565b6000808291508390505b600185111562000ea95780860481111562000e815762000e8062000e1b565b5b600185161562000e915780820291505b808102905062000ea18562000e4a565b945062000e61565b94509492505050565b60008262000ec4576001905062000f97565b8162000ed4576000905062000f97565b816001811462000eed576002811462000ef85762000f2e565b600191505062000f97565b60ff84111562000f0d5762000f0c62000e1b565b5b8360020a91508482111562000f275762000f2662000e1b565b5b5062000f97565b5060208310610133831016604e8410600b841016171562000f685782820a90508381111562000f625762000f6162000e1b565b5b62000f97565b62000f77848484600162000e57565b9250905081840481111562000f915762000f9062000e1b565b5b81810290505b9392505050565b6000819050919050565b600060ff82169050919050565b600062000fc28262000f9e565b915062000fcf8362000fa8565b925062000ffe7fffffffffffffffffffffffffffffffffffffffffffffffffffffffffffffffff848462000eb2565b905092915050565b6000620010138262000f9e565b9150620010208362000f9e565b9250817fffffffffffffffffffffffffffffffffffffffffffffffffffffffffffffffff04831182151516156200105c576200105b62000e1b565b5b828202905092915050565b6000819050919050565b6200107c8162001067565b82525050565b6200108d8162000f9e565b82525050565b600073ffffffffffffffffffffffffffffffffffffffff82169050919050565b6000620010c08262001093565b9050919050565b620010d281620010b3565b82525050565b600060a082019050620010ef600083018862001071565b620010fe602083018762001071565b6200110d604083018662001071565b6200111c606083018562001082565b6200112b6080830184620010c7565b9695505050505050565b600082825260208201905092915050565b7f4552433230566f7465733a20746f74616c20737570706c79207269736b73206f60008201527f766572666c6f77696e6720766f74657300000000000000000000000000000000602082015250565b6000620011a460308362001135565b9150620011b18262001146565b604082019050919050565b60006020820190508181036000830152620011d78162001195565b9050919050565b7f45524332303a206d696e7420746f20746865207a65726f206164647265737300600082015250565b600062001216601f8362001135565b91506200122382620011de565b602082019050919050565b60006020820190508181036000830152620012498162001207565b9050919050565b60006200125d8262000f9e565b91506200126a8362000f9e565b9250827fffffffffffffffffffffffffffffffffffffffffffffffffffffffffffffffff03821115620012a257620012a162000e1b565b5b828201905092915050565b6000602082019050620012c4600083018462001082565b92915050565b6000620012d78262000f9e565b9150620012e48362000f9e565b925082821015620012fa57620012f962000e1b565b5b828203905092915050565b7f4e487b7100000000000000000000000000000000000000000000000000000000600052603260045260246000fd5b7f5061757361626c653a2070617573656400000000000000000000000000000000600082015250565b60006200136c60108362001135565b9150620013798262001334565b602082019050919050565b600060208201905081810360008301526200139f816200135d565b9050919050565b7f53616665436173743a2076616c756520646f65736e27742066697420696e203260008201527f3234206269747300000000000000000000000000000000000000000000000000602082015250565b60006200140460278362001135565b91506200141182620013a6565b604082019050919050565b600060208201905081810360008301526200143781620013f5565b9050919050565b7f53616665436173743a2076616c756520646f65736e27742066697420696e203360008201527f3220626974730000000000000000000000000000000000000000000000000000602082015250565b60006200149c60268362001135565b9150620014a9826200143e565b604082019050919050565b60006020820190508181036000830152620014cf816200148d565b9050919050565b6000604082019050620014ed600083018562001082565b620014fc602083018462001082565b9392505050565b7f4e487b7100000000000000000000000000000000000000000000000000000000600052602260045260246000fd5b600060028204905060018216806200154b57607f821691505b60208210810362001561576200156062001503565b5b50919050565b60805160a05160c05160e05161010051610120516149ca620015b760003960006113da01526000611fbe0152600061200001526000611fdf01526000611f6c01526000611f9301526149ca6000f3fe608060405234801561001057600080fd5b50600436106102275760003560e01c8063715018a611610130578063a457c2d7116100b8578063da3a96611161007c578063da3a96611461069e578063dd62ed3e146106ba578063ed25f27c146106ea578063f1127ed814610708578063f2fde38b1461073857610227565b8063a457c2d7146105d6578063a48603db14610606578063a9059cbb14610636578063c3cda52014610666578063d505accf1461068257610227565b80638456cb59116100ff5780638456cb59146105305780638da5cb5b1461053a5780638e539e8c1461055857806395d89b41146105885780639ab24eb0146105a657610227565b8063715018a6146104be57806379a0b20a146104c857806379cc6790146104e45780637ecebe001461050057610227565b80633f4ba83a116101b35780635c19a95c116101825780635c19a95c146103f45780635c975abb1461041057806362d3576b1461042e5780636fcfff451461045e57806370a082311461048e57610227565b80633f4ba83a1461038257806340c10f191461038c57806342966c68146103a8578063587cde1e146103c457610227565b806323b872dd116101fa57806323b872dd146102b6578063313ce567146102e65780633644e5151461030457806339509351146103225780633a46b1a81461035257610227565b806306fdde031461022c578063095ea7b31461024a57806318160ddd1461027a57806318f2bf9014610298575b600080fd5b610234610754565b6040516102419190613071565b60405180910390f35b610264600480360381019061025f919061312c565b6107e6565b6040516102719190613187565b60405180910390f35b610282610804565b60405161028f91906131b1565b60405180910390f35b6102a061080e565b6040516102ad91906131b1565b60405180910390f35b6102d060048036038101906102cb91906131cc565b610814565b6040516102dd9190613187565b60405180910390f35b6102ee61090c565b6040516102fb919061323b565b60405180910390f35b61030c610915565b604051610319919061326f565b60405180910390f35b61033c6004803603810190610337919061312c565b610924565b6040516103499190613187565b60405180910390f35b61036c6004803603810190610367919061312c565b6109d0565b60405161037991906131b1565b60405180910390f35b61038a610a64565b005b6103a660048036038101906103a1919061312c565b610aea565b005b6103c260048036038101906103bd919061328a565b610b74565b005b6103de60048036038101906103d991906132b7565b610b88565b6040516103eb91906132f3565b60405180910390f35b61040e600480360381019061040991906132b7565b610bf1565b005b610418610c05565b6040516104259190613187565b60405180910390f35b610448600480360381019061044391906132b7565b610c1c565b6040516104559190613187565b60405180910390f35b610478600480360381019061047391906132b7565b610c33565b604051610485919061332d565b60405180910390f35b6104a860048036038101906104a391906132b7565b610c87565b6040516104b591906131b1565b60405180910390f35b6104c6610ccf565b005b6104e260048036038101906104dd919061328a565b610d57565b005b6104fe60048036038101906104f9919061312c565b610dfb565b005b61051a600480360381019061051591906132b7565b610e76565b60405161052791906131b1565b60405180910390f35b610538610ec6565b005b610542610f4c565b60405161054f91906132f3565b60405180910390f35b610572600480360381019061056d919061328a565b610f76565b60405161057f91906131b1565b60405180910390f35b610590610fcc565b60405161059d9190613071565b60405180910390f35b6105c060048036038101906105bb91906132b7565b61105e565b6040516105cd91906131b1565b60405180910390f35b6105f060048036038101906105eb919061312c565b61116f565b6040516105fd9190613187565b60405180910390f35b610620600480360381019061061b91906132b7565b61125a565b60405161062d9190613187565b60405180910390f35b610650600480360381019061064b919061312c565b611271565b60405161065d9190613187565b60405180910390f35b610680600480360381019061067b91906133a0565b61128f565b005b61069c6004803603810190610697919061342d565b611393565b005b6106b860048036038101906106b3919061328a565b6114d5565b005b6106d460048036038101906106cf91906134cf565b611579565b6040516106e191906131b1565b60405180910390f35b6106f2611600565b6040516106ff91906131b1565b60405180910390f35b610722600480360381019061071d919061353b565b611606565b60405161072f91906135f0565b60405180910390f35b610752600480360381019061074d91906132b7565b611716565b005b6060600380546107639061363a565b80601f016020809104026020016040519081016040528092919081815260200182805461078f9061363a565b80156107dc5780601f106107b1576101008083540402835291602001916107dc565b820191906000526020600020905b8154815290600101906020018083116107bf57829003601f168201915b5050505050905090565b60006107fa6107f3611b18565b8484611b20565b6001905092915050565b6000600254905090565b600b5481565b6000610821848484611ce9565b6000600160008673ffffffffffffffffffffffffffffffffffffffff1673ffffffffffffffffffffffffffffffffffffffff168152602001908152602001600020600061086c611b18565b73ffffffffffffffffffffffffffffffffffffffff1673ffffffffffffffffffffffffffffffffffffffff168152602001908152602001600020549050828110156108ec576040517f08c379a00000000000000000000000000000000000000000000000000000000081526004016108e3906136dd565b60405180910390fd5b610900856108f8611b18565b858403611b20565b60019150509392505050565b60006012905090565b600061091f611f68565b905090565b60006109c6610931611b18565b84846001600061093f611b18565b73ffffffffffffffffffffffffffffffffffffffff1673ffffffffffffffffffffffffffffffffffffffff16815260200190815260200160002060008873ffffffffffffffffffffffffffffffffffffffff1673ffffffffffffffffffffffffffffffffffffffff168152602001908152602001600020546109c1919061372c565b611b20565b6001905092915050565b6000438210610a14576040517f08c379a0000000000000000000000000000000000000000000000000000000008152600401610a0b906137ce565b60405180910390fd5b610a5c600860008573ffffffffffffffffffffffffffffffffffffffff1673ffffffffffffffffffffffffffffffffffffffff1681526020019081526020016000208361202a565b905092915050565b610a6c611b18565b73ffffffffffffffffffffffffffffffffffffffff16610a8a610f4c565b73ffffffffffffffffffffffffffffffffffffffff1614610ae0576040517f08c379a0000000000000000000000000000000000000000000000000000000008152600401610ad79061383a565b60405180910390fd5b610ae8612136565b565b610af2611b18565b73ffffffffffffffffffffffffffffffffffffffff16610b10610f4c565b73ffffffffffffffffffffffffffffffffffffffff1614610b66576040517f08c379a0000000000000000000000000000000000000000000000000000000008152600401610b5d9061383a565b60405180910390fd5b610b7082826121d8565b5050565b610b85610b7f611b18565b826121e6565b50565b6000600760008373ffffffffffffffffffffffffffffffffffffffff1673ffffffffffffffffffffffffffffffffffffffff16815260200190815260200160002060009054906101000a900473ffffffffffffffffffffffffffffffffffffffff169050919050565b610c02610bfc611b18565b826121f4565b50565b6000600560009054906101000a900460ff16905090565b6000600a54610c2a83610c87565b10159050919050565b6000610c80600860008473ffffffffffffffffffffffffffffffffffffffff1673ffffffffffffffffffffffffffffffffffffffff16815260200190815260200160002080549050611a7a565b9050919050565b60008060008373ffffffffffffffffffffffffffffffffffffffff1673ffffffffffffffffffffffffffffffffffffffff168152602001908152602001600020549050919050565b610cd7611b18565b73ffffffffffffffffffffffffffffffffffffffff16610cf5610f4c565b73ffffffffffffffffffffffffffffffffffffffff1614610d4b576040517f08c379a0000000000000000000000000000000000000000000000000000000008152600401610d429061383a565b60405180910390fd5b610d55600061230e565b565b610d5f611b18565b73ffffffffffffffffffffffffffffffffffffffff16610d7d610f4c565b73ffffffffffffffffffffffffffffffffffffffff1614610dd3576040517f08c379a0000000000000000000000000000000000000000000000000000000008152600401610dca9061383a565b60405180910390fd5b610ddb61090c565b600a610de7919061398d565b81610df291906139d8565b600a8190555050565b6000610e0e83610e09611b18565b611579565b905081811015610e53576040517f08c379a0000000000000000000000000000000000000000000000000000000008152600401610e4a90613aa4565b60405180910390fd5b610e6783610e5f611b18565b848403611b20565b610e7183836121e6565b505050565b6000610ebf600660008473ffffffffffffffffffffffffffffffffffffffff1673ffffffffffffffffffffffffffffffffffffffff1681526020019081526020016000206123d4565b9050919050565b610ece611b18565b73ffffffffffffffffffffffffffffffffffffffff16610eec610f4c565b73ffffffffffffffffffffffffffffffffffffffff1614610f42576040517f08c379a0000000000000000000000000000000000000000000000000000000008152600401610f399061383a565b60405180910390fd5b610f4a6123e2565b565b6000600560019054906101000a900473ffffffffffffffffffffffffffffffffffffffff16905090565b6000438210610fba576040517f08c379a0000000000000000000000000000000000000000000000000000000008152600401610fb1906137ce565b60405180910390fd5b610fc560098361202a565b9050919050565b606060048054610fdb9061363a565b80601f01602080910402602001604051908101604052809291908181526020018280546110079061363a565b80156110545780601f1061102957610100808354040283529160200191611054565b820191906000526020600020905b81548152906001019060200180831161103757829003601f168201915b5050505050905090565b600080600860008473ffffffffffffffffffffffffffffffffffffffff1673ffffffffffffffffffffffffffffffffffffffff1681526020019081526020016000208054905090506000811461114657600860008473ffffffffffffffffffffffffffffffffffffffff1673ffffffffffffffffffffffffffffffffffffffff1681526020019081526020016000206001826110fa9190613ac4565b8154811061110b5761110a613af8565b5b9060005260206000200160000160049054906101000a90047bffffffffffffffffffffffffffffffffffffffffffffffffffffffff16611149565b60005b7bffffffffffffffffffffffffffffffffffffffffffffffffffffffff16915050919050565b6000806001600061117e611b18565b73ffffffffffffffffffffffffffffffffffffffff1673ffffffffffffffffffffffffffffffffffffffff16815260200190815260200160002060008573ffffffffffffffffffffffffffffffffffffffff1673ffffffffffffffffffffffffffffffffffffffff1681526020019081526020016000205490508281101561123b576040517f08c379a000000000000000000000000000000000000000000000000000000000815260040161123290613b99565b60405180910390fd5b61124f611246611b18565b85858403611b20565b600191505092915050565b6000600b5461126883610c87565b10159050919050565b600061128561127e611b18565b8484611ce9565b6001905092915050565b834211156112d2576040517f08c379a00000000000000000000000000000000000000000000000000000000081526004016112c990613c05565b60405180910390fd5b600061133461132c7fe48329057bfd03d55e49b547132e39cffd9c1820ad7b9d4c5307691425d15adf8989896040516020016113119493929190613c25565b60405160208183030381529060405280519060200120612485565b85858561249f565b905061133f816124ca565b8614611380576040517f08c379a000000000000000000000000000000000000000000000000000000000815260040161137790613cb6565b60405180910390fd5b61138a81886121f4565b50505050505050565b834211156113d6576040517f08c379a00000000000000000000000000000000000000000000000000000000081526004016113cd90613d22565b60405180910390fd5b60007f00000000000000000000000000000000000000000000000000000000000000008888886114058c6124ca565b8960405160200161141b96959493929190613d42565b604051602081830303815290604052805190602001209050600061143e82612485565b9050600061144e8287878761249f565b90508973ffffffffffffffffffffffffffffffffffffffff168173ffffffffffffffffffffffffffffffffffffffff16146114be576040517f08c379a00000000000000000000000000000000000000000000000000000000081526004016114b590613def565b60405180910390fd5b6114c98a8a8a611b20565b50505050505050505050565b6114dd611b18565b73ffffffffffffffffffffffffffffffffffffffff166114fb610f4c565b73ffffffffffffffffffffffffffffffffffffffff1614611551576040517f08c379a00000000000000000000000000000000000000000000000000000000081526004016115489061383a565b60405180910390fd5b61155961090c565b600a611565919061398d565b8161157091906139d8565b600b8190555050565b6000600160008473ffffffffffffffffffffffffffffffffffffffff1673ffffffffffffffffffffffffffffffffffffffff16815260200190815260200160002060008373ffffffffffffffffffffffffffffffffffffffff1673ffffffffffffffffffffffffffffffffffffffff16815260200190815260200160002054905092915050565b600a5481565b61160e612f9a565b600860008473ffffffffffffffffffffffffffffffffffffffff1673ffffffffffffffffffffffffffffffffffffffff1681526020019081526020016000208263ffffffff168154811061166557611664613af8565b5b906000526020600020016040518060400160405290816000820160009054906101000a900463ffffffff1663ffffffff1663ffffffff1681526020016000820160049054906101000a90047bffffffffffffffffffffffffffffffffffffffffffffffffffffffff167bffffffffffffffffffffffffffffffffffffffffffffffffffffffff167bffffffffffffffffffffffffffffffffffffffffffffffffffffffff1681525050905092915050565b61171e611b18565b73ffffffffffffffffffffffffffffffffffffffff1661173c610f4c565b73ffffffffffffffffffffffffffffffffffffffff1614611792576040517f08c379a00000000000000000000000000000000000000000000000000000000081526004016117899061383a565b60405180910390fd5b600073ffffffffffffffffffffffffffffffffffffffff168173ffffffffffffffffffffffffffffffffffffffff1603611801576040517f08c379a00000000000000000000000000000000000000000000000000000000081526004016117f890613e81565b60405180910390fd5b61180a8161230e565b50565b611817828261189a565b61181f612528565b7bffffffffffffffffffffffffffffffffffffffffffffffffffffffff16611845610804565b1115611886576040517f08c379a000000000000000000000000000000000000000000000000000000000815260040161187d90613f13565b60405180910390fd5b61189460096119f98361254c565b50505050565b600073ffffffffffffffffffffffffffffffffffffffff168273ffffffffffffffffffffffffffffffffffffffff1603611909576040517f08c379a000000000000000000000000000000000000000000000000000000000815260040161190090613f7f565b60405180910390fd5b611915600083836127c4565b8060026000828254611927919061372c565b92505081905550806000808473ffffffffffffffffffffffffffffffffffffffff1673ffffffffffffffffffffffffffffffffffffffff168152602001908152602001600020600082825461197c919061372c565b925050819055508173ffffffffffffffffffffffffffffffffffffffff16600073ffffffffffffffffffffffffffffffffffffffff167fddf252ad1be2c89b69c2b068fc378daa952ba7f163c4a11628f55a4df523b3ef836040516119e191906131b1565b60405180910390a36119f56000838361281c565b5050565b60008183611a07919061372c565b905092915050565b60007bffffffffffffffffffffffffffffffffffffffffffffffffffffffff8016821115611a72576040517f08c379a0000000000000000000000000000000000000000000000000000000008152600401611a6990614011565b60405180910390fd5b819050919050565b600063ffffffff8016821115611ac5576040517f08c379a0000000000000000000000000000000000000000000000000000000008152600401611abc906140a3565b60405180910390fd5b819050919050565b505050565b611add838383611afd565b611af8611ae984610b88565b611af284610b88565b8361282c565b505050565b505050565b60008183611b109190613ac4565b905092915050565b600033905090565b600073ffffffffffffffffffffffffffffffffffffffff168373ffffffffffffffffffffffffffffffffffffffff1603611b8f576040517f08c379a0000000000000000000000000000000000000000000000000000000008152600401611b8690614135565b60405180910390fd5b600073ffffffffffffffffffffffffffffffffffffffff168273ffffffffffffffffffffffffffffffffffffffff1603611bfe576040517f08c379a0000000000000000000000000000000000000000000000000000000008152600401611bf5906141c7565b60405180910390fd5b80600160008573ffffffffffffffffffffffffffffffffffffffff1673ffffffffffffffffffffffffffffffffffffffff16815260200190815260200160002060008473ffffffffffffffffffffffffffffffffffffffff1673ffffffffffffffffffffffffffffffffffffffff168152602001908152602001600020819055508173ffffffffffffffffffffffffffffffffffffffff168373ffffffffffffffffffffffffffffffffffffffff167f8c5be1e5ebec7d5bd14f71427d1e84f3dd0314c0f7b2291e5b200ac8c7c3b92583604051611cdc91906131b1565b60405180910390a3505050565b600073ffffffffffffffffffffffffffffffffffffffff168373ffffffffffffffffffffffffffffffffffffffff1603611d58576040517f08c379a0000000000000000000000000000000000000000000000000000000008152600401611d4f90614259565b60405180910390fd5b600073ffffffffffffffffffffffffffffffffffffffff168273ffffffffffffffffffffffffffffffffffffffff1603611dc7576040517f08c379a0000000000000000000000000000000000000000000000000000000008152600401611dbe906142eb565b60405180910390fd5b611dd28383836127c4565b60008060008573ffffffffffffffffffffffffffffffffffffffff1673ffffffffffffffffffffffffffffffffffffffff16815260200190815260200160002054905081811015611e58576040517f08c379a0000000000000000000000000000000000000000000000000000000008152600401611e4f9061437d565b60405180910390fd5b8181036000808673ffffffffffffffffffffffffffffffffffffffff1673ffffffffffffffffffffffffffffffffffffffff16815260200190815260200160002081905550816000808573ffffffffffffffffffffffffffffffffffffffff1673ffffffffffffffffffffffffffffffffffffffff1681526020019081526020016000206000828254611eeb919061372c565b925050819055508273ffffffffffffffffffffffffffffffffffffffff168473ffffffffffffffffffffffffffffffffffffffff167fddf252ad1be2c89b69c2b068fc378daa952ba7f163c4a11628f55a4df523b3ef84604051611f4f91906131b1565b60405180910390a3611f6284848461281c565b50505050565b60007f00000000000000000000000000000000000000000000000000000000000000004603611fb9577f00000000000000000000000000000000000000000000000000000000000000009050612027565b6120247f00000000000000000000000000000000000000000000000000000000000000007f00000000000000000000000000000000000000000000000000000000000000007f0000000000000000000000000000000000000000000000000000000000000000612a25565b90505b90565b6000808380549050905060005b818110156120a957600061204b8284612a5f565b90508486828154811061206157612060613af8565b5b9060005260206000200160000160009054906101000a900463ffffffff1663ffffffff161115612093578092506120a3565b6001816120a0919061372c565b91505b50612037565b6000821461210b57846001836120bf9190613ac4565b815481106120d0576120cf613af8565b5b9060005260206000200160000160049054906101000a90047bffffffffffffffffffffffffffffffffffffffffffffffffffffffff1661210e565b60005b7bffffffffffffffffffffffffffffffffffffffffffffffffffffffff169250505092915050565b61213e610c05565b61217d576040517f08c379a0000000000000000000000000000000000000000000000000000000008152600401612174906143e9565b60405180910390fd5b6000600560006101000a81548160ff0219169083151502179055507f5db9ee0a495bf2e6ff9c91a7834c1ba4fdd244a5e8aa4e537bd38aeae4b073aa6121c1611b18565b6040516121ce91906132f3565b60405180910390a1565b6121e2828261180d565b5050565b6121f08282612a85565b5050565b60006121ff83610b88565b9050600061220c84610c87565b905082600760008673ffffffffffffffffffffffffffffffffffffffff1673ffffffffffffffffffffffffffffffffffffffff16815260200190815260200160002060006101000a81548173ffffffffffffffffffffffffffffffffffffffff021916908373ffffffffffffffffffffffffffffffffffffffff1602179055508273ffffffffffffffffffffffffffffffffffffffff168273ffffffffffffffffffffffffffffffffffffffff168573ffffffffffffffffffffffffffffffffffffffff167f3134e8a2e6d97e929a7e54011ea5485d7d196dd5f0ba4d4ef95803e8e3fc257f60405160405180910390a461230882848361282c565b50505050565b6000600560019054906101000a900473ffffffffffffffffffffffffffffffffffffffff16905081600560016101000a81548173ffffffffffffffffffffffffffffffffffffffff021916908373ffffffffffffffffffffffffffffffffffffffff1602179055508173ffffffffffffffffffffffffffffffffffffffff168173ffffffffffffffffffffffffffffffffffffffff167f8be0079c531659141344cd1fd0a4f28419497f9722a3daafe3b4186f6b6457e060405160405180910390a35050565b600081600001549050919050565b6123ea610c05565b1561242a576040517f08c379a000000000000000000000000000000000000000000000000000000000815260040161242190614455565b60405180910390fd5b6001600560006101000a81548160ff0219169083151502179055507f62e78cea01bee320cd4e420270b5ea74000d11b0c9f74754ebdbfc544b05a25861246e611b18565b60405161247b91906132f3565b60405180910390a1565b6000612498612492611f68565b83612aa3565b9050919050565b60008060006124b087878787612ad6565b915091506124bd81612be2565b8192505050949350505050565b600080600660008473ffffffffffffffffffffffffffffffffffffffff1673ffffffffffffffffffffffffffffffffffffffff1681526020019081526020016000209050612517816123d4565b915061252281612dae565b50919050565b60007bffffffffffffffffffffffffffffffffffffffffffffffffffffffff905090565b600080600085805490509050600081146125ba578560018261256e9190613ac4565b8154811061257f5761257e613af8565b5b9060005260206000200160000160049054906101000a90047bffffffffffffffffffffffffffffffffffffffffffffffffffffffff166125bd565b60005b7bffffffffffffffffffffffffffffffffffffffffffffffffffffffff1692506125eb83858763ffffffff16565b915060008111801561263e575043866001836126079190613ac4565b8154811061261857612617613af8565b5b9060005260206000200160000160009054906101000a900463ffffffff1663ffffffff16145b156126cb5761264c82611a0f565b8660018361265a9190613ac4565b8154811061266b5761266a613af8565b5b9060005260206000200160000160046101000a8154817bffffffffffffffffffffffffffffffffffffffffffffffffffffffff02191690837bffffffffffffffffffffffffffffffffffffffffffffffffffffffff1602179055506127bb565b8560405180604001604052806126e043611a7a565b63ffffffff1681526020016126f485611a0f565b7bffffffffffffffffffffffffffffffffffffffffffffffffffffffff168152509080600181540180825580915050600190039060005260206000200160009091909190915060008201518160000160006101000a81548163ffffffff021916908363ffffffff16021790555060208201518160000160046101000a8154817bffffffffffffffffffffffffffffffffffffffffffffffffffffffff02191690837bffffffffffffffffffffffffffffffffffffffffffffffffffffffff16021790555050505b50935093915050565b6127cc610c05565b1561280c576040517f08c379a000000000000000000000000000000000000000000000000000000000815260040161280390614455565b60405180910390fd5b612817838383611acd565b505050565b612827838383611ad2565b505050565b8173ffffffffffffffffffffffffffffffffffffffff168373ffffffffffffffffffffffffffffffffffffffff16141580156128685750600081115b15612a2057600073ffffffffffffffffffffffffffffffffffffffff168373ffffffffffffffffffffffffffffffffffffffff1614612946576000806128ef600860008773ffffffffffffffffffffffffffffffffffffffff1673ffffffffffffffffffffffffffffffffffffffff168152602001908152602001600020611b028561254c565b915091508473ffffffffffffffffffffffffffffffffffffffff167fdec2bacdd2f05b59de34da9b523dff8be42e5e38e818c82fdb0bae774387a724838360405161293b929190614475565b60405180910390a250505b600073ffffffffffffffffffffffffffffffffffffffff168273ffffffffffffffffffffffffffffffffffffffff1614612a1f576000806129c8600860008673ffffffffffffffffffffffffffffffffffffffff1673ffffffffffffffffffffffffffffffffffffffff1681526020019081526020016000206119f98561254c565b915091508373ffffffffffffffffffffffffffffffffffffffff167fdec2bacdd2f05b59de34da9b523dff8be42e5e38e818c82fdb0bae774387a7248383604051612a14929190614475565b60405180910390a250505b5b505050565b60008383834630604051602001612a4095949392919061449e565b6040516020818303038152906040528051906020012090509392505050565b60006002828418612a709190614520565b828416612a7d919061372c565b905092915050565b612a8f8282612dc4565b612a9d6009611b028361254c565b50505050565b60008282604051602001612ab89291906145c9565b60405160208183030381529060405280519060200120905092915050565b6000807f7fffffffffffffffffffffffffffffff5d576e7357a4501ddfe92f46681b20a08360001c1115612b11576000600391509150612bd9565b601b8560ff1614158015612b295750601c8560ff1614155b15612b3b576000600491509150612bd9565b600060018787878760405160008152602001604052604051612b609493929190614600565b6020604051602081039080840390855afa158015612b82573d6000803e3d6000fd5b505050602060405103519050600073ffffffffffffffffffffffffffffffffffffffff168173ffffffffffffffffffffffffffffffffffffffff1603612bd057600060019250925050612bd9565b80600092509250505b94509492505050565b60006004811115612bf657612bf5614645565b5b816004811115612c0957612c08614645565b5b0315612dab5760016004811115612c2357612c22614645565b5b816004811115612c3657612c35614645565b5b03612c76576040517f08c379a0000000000000000000000000000000000000000000000000000000008152600401612c6d906146c0565b60405180910390fd5b60026004811115612c8a57612c89614645565b5b816004811115612c9d57612c9c614645565b5b03612cdd576040517f08c379a0000000000000000000000000000000000000000000000000000000008152600401612cd49061472c565b60405180910390fd5b60036004811115612cf157612cf0614645565b5b816004811115612d0457612d03614645565b5b03612d44576040517f08c379a0000000000000000000000000000000000000000000000000000000008152600401612d3b906147be565b60405180910390fd5b600480811115612d5757612d56614645565b5b816004811115612d6a57612d69614645565b5b03612daa576040517f08c379a0000000000000000000000000000000000000000000000000000000008152600401612da190614850565b60405180910390fd5b5b50565b6001816000016000828254019250508190555050565b600073ffffffffffffffffffffffffffffffffffffffff168273ffffffffffffffffffffffffffffffffffffffff1603612e33576040517f08c379a0000000000000000000000000000000000000000000000000000000008152600401612e2a906148e2565b60405180910390fd5b612e3f826000836127c4565b60008060008473ffffffffffffffffffffffffffffffffffffffff1673ffffffffffffffffffffffffffffffffffffffff16815260200190815260200160002054905081811015612ec5576040517f08c379a0000000000000000000000000000000000000000000000000000000008152600401612ebc90614974565b60405180910390fd5b8181036000808573ffffffffffffffffffffffffffffffffffffffff1673ffffffffffffffffffffffffffffffffffffffff168152602001908152602001600020819055508160026000828254612f1c9190613ac4565b92505081905550600073ffffffffffffffffffffffffffffffffffffffff168373ffffffffffffffffffffffffffffffffffffffff167fddf252ad1be2c89b69c2b068fc378daa952ba7f163c4a11628f55a4df523b3ef84604051612f8191906131b1565b60405180910390a3612f958360008461281c565b505050565b6040518060400160405280600063ffffffff16815260200160007bffffffffffffffffffffffffffffffffffffffffffffffffffffffff1681525090565b600081519050919050565b600082825260208201905092915050565b60005b83811015613012578082015181840152602081019050612ff7565b83811115613021576000848401525b50505050565b6000601f19601f8301169050919050565b600061304382612fd8565b61304d8185612fe3565b935061305d818560208601612ff4565b61306681613027565b840191505092915050565b6000602082019050818103600083015261308b8184613038565b905092915050565b600080fd5b600073ffffffffffffffffffffffffffffffffffffffff82169050919050565b60006130c382613098565b9050919050565b6130d3816130b8565b81146130de57600080fd5b50565b6000813590506130f0816130ca565b92915050565b6000819050919050565b613109816130f6565b811461311457600080fd5b50565b60008135905061312681613100565b92915050565b6000806040838503121561314357613142613093565b5b6000613151858286016130e1565b925050602061316285828601613117565b9150509250929050565b60008115159050919050565b6131818161316c565b82525050565b600060208201905061319c6000830184613178565b92915050565b6131ab816130f6565b82525050565b60006020820190506131c660008301846131a2565b92915050565b6000806000606084860312156131e5576131e4613093565b5b60006131f3868287016130e1565b9350506020613204868287016130e1565b925050604061321586828701613117565b9150509250925092565b600060ff82169050919050565b6132358161321f565b82525050565b6000602082019050613250600083018461322c565b92915050565b6000819050919050565b61326981613256565b82525050565b60006020820190506132846000830184613260565b92915050565b6000602082840312156132a05761329f613093565b5b60006132ae84828501613117565b91505092915050565b6000602082840312156132cd576132cc613093565b5b60006132db848285016130e1565b91505092915050565b6132ed816130b8565b82525050565b600060208201905061330860008301846132e4565b92915050565b600063ffffffff82169050919050565b6133278161330e565b82525050565b6000602082019050613342600083018461331e565b92915050565b6133518161321f565b811461335c57600080fd5b50565b60008135905061336e81613348565b92915050565b61337d81613256565b811461338857600080fd5b50565b60008135905061339a81613374565b92915050565b60008060008060008060c087890312156133bd576133bc613093565b5b60006133cb89828a016130e1565b96505060206133dc89828a01613117565b95505060406133ed89828a01613117565b94505060606133fe89828a0161335f565b935050608061340f89828a0161338b565b92505060a061342089828a0161338b565b9150509295509295509295565b600080600080600080600060e0888a03121561344c5761344b613093565b5b600061345a8a828b016130e1565b975050602061346b8a828b016130e1565b965050604061347c8a828b01613117565b955050606061348d8a828b01613117565b945050608061349e8a828b0161335f565b93505060a06134af8a828b0161338b565b92505060c06134c08a828b0161338b565b91505092959891949750929550565b600080604083850312156134e6576134e5613093565b5b60006134f4858286016130e1565b9250506020613505858286016130e1565b9150509250929050565b6135188161330e565b811461352357600080fd5b50565b6000813590506135358161350f565b92915050565b6000806040838503121561355257613551613093565b5b6000613560858286016130e1565b925050602061357185828601613526565b9150509250929050565b6135848161330e565b82525050565b60007bffffffffffffffffffffffffffffffffffffffffffffffffffffffff82169050919050565b6135bb8161358a565b82525050565b6040820160008201516135d7600085018261357b565b5060208201516135ea60208501826135b2565b50505050565b600060408201905061360560008301846135c1565b92915050565b7f4e487b7100000000000000000000000000000000000000000000000000000000600052602260045260246000fd5b6000600282049050600182168061365257607f821691505b6020821081036136655761366461360b565b5b50919050565b7f45524332303a207472616e7366657220616d6f756e742065786365656473206160008201527f6c6c6f77616e6365000000000000000000000000000000000000000000000000602082015250565b60006136c7602883612fe3565b91506136d28261366b565b604082019050919050565b600060208201905081810360008301526136f6816136ba565b9050919050565b7f4e487b7100000000000000000000000000000000000000000000000000000000600052601160045260246000fd5b6000613737826130f6565b9150613742836130f6565b9250827fffffffffffffffffffffffffffffffffffffffffffffffffffffffffffffffff03821115613777576137766136fd565b5b828201905092915050565b7f4552433230566f7465733a20626c6f636b206e6f7420796574206d696e656400600082015250565b60006137b8601f83612fe3565b91506137c382613782565b602082019050919050565b600060208201905081810360008301526137e7816137ab565b9050919050565b7f4f776e61626c653a2063616c6c6572206973206e6f7420746865206f776e6572600082015250565b6000613824602083612fe3565b915061382f826137ee565b602082019050919050565b6000602082019050818103600083015261385381613817565b9050919050565b60008160011c9050919050565b6000808291508390505b60018511156138b15780860481111561388d5761388c6136fd565b5b600185161561389c5780820291505b80810290506138aa8561385a565b9450613871565b94509492505050565b6000826138ca5760019050613986565b816138d85760009050613986565b81600181146138ee57600281146138f857613927565b6001915050613986565b60ff84111561390a576139096136fd565b5b8360020a915084821115613921576139206136fd565b5b50613986565b5060208310610133831016604e8410600b841016171561395c5782820a905083811115613957576139566136fd565b5b613986565b6139698484846001613867565b925090508184048111156139805761397f6136fd565b5b81810290505b9392505050565b6000613998826130f6565b91506139a38361321f565b92506139d07fffffffffffffffffffffffffffffffffffffffffffffffffffffffffffffffff84846138ba565b905092915050565b60006139e3826130f6565b91506139ee836130f6565b9250817fffffffffffffffffffffffffffffffffffffffffffffffffffffffffffffffff0483118215151615613a2757613a266136fd565b5b828202905092915050565b7f45524332303a206275726e20616d6f756e74206578636565647320616c6c6f7760008201527f616e636500000000000000000000000000000000000000000000000000000000602082015250565b6000613a8e602483612fe3565b9150613a9982613a32565b604082019050919050565b60006020820190508181036000830152613abd81613a81565b9050919050565b6000613acf826130f6565b9150613ada836130f6565b925082821015613aed57613aec6136fd565b5b828203905092915050565b7f4e487b7100000000000000000000000000000000000000000000000000000000600052603260045260246000fd5b7f45524332303a2064656372656173656420616c6c6f77616e63652062656c6f7760008201527f207a65726f000000000000000000000000000000000000000000000000000000602082015250565b6000613b83602583612fe3565b9150613b8e82613b27565b604082019050919050565b60006020820190508181036000830152613bb281613b76565b9050919050565b7f4552433230566f7465733a207369676e61747572652065787069726564000000600082015250565b6000613bef601d83612fe3565b9150613bfa82613bb9565b602082019050919050565b60006020820190508181036000830152613c1e81613be2565b9050919050565b6000608082019050613c3a6000830187613260565b613c4760208301866132e4565b613c5460408301856131a2565b613c6160608301846131a2565b95945050505050565b7f4552433230566f7465733a20696e76616c6964206e6f6e636500000000000000600082015250565b6000613ca0601983612fe3565b9150613cab82613c6a565b602082019050919050565b60006020820190508181036000830152613ccf81613c93565b9050919050565b7f45524332305065726d69743a206578706972656420646561646c696e65000000600082015250565b6000613d0c601d83612fe3565b9150613d1782613cd6565b602082019050919050565b60006020820190508181036000830152613d3b81613cff565b9050919050565b600060c082019050613d576000830189613260565b613d6460208301886132e4565b613d7160408301876132e4565b613d7e60608301866131a2565b613d8b60808301856131a2565b613d9860a08301846131a2565b979650505050505050565b7f45524332305065726d69743a20696e76616c6964207369676e61747572650000600082015250565b6000613dd9601e83612fe3565b9150613de482613da3565b602082019050919050565b60006020820190508181036000830152613e0881613dcc565b9050919050565b7f4f776e61626c653a206e6577206f776e657220697320746865207a65726f206160008201527f6464726573730000000000000000000000000000000000000000000000000000602082015250565b6000613e6b602683612fe3565b9150613e7682613e0f565b604082019050919050565b60006020820190508181036000830152613e9a81613e5e565b9050919050565b7f4552433230566f7465733a20746f74616c20737570706c79207269736b73206f60008201527f766572666c6f77696e6720766f74657300000000000000000000000000000000602082015250565b6000613efd603083612fe3565b9150613f0882613ea1565b604082019050919050565b60006020820190508181036000830152613f2c81613ef0565b9050919050565b7f45524332303a206d696e7420746f20746865207a65726f206164647265737300600082015250565b6000613f69601f83612fe3565b9150613f7482613f33565b602082019050919050565b60006020820190508181036000830152613f9881613f5c565b9050919050565b7f53616665436173743a2076616c756520646f65736e27742066697420696e203260008201527f3234206269747300000000000000000000000000000000000000000000000000602082015250565b6000613ffb602783612fe3565b915061400682613f9f565b604082019050919050565b6000602082019050818103600083015261402a81613fee565b9050919050565b7f53616665436173743a2076616c756520646f65736e27742066697420696e203360008201527f3220626974730000000000000000000000000000000000000000000000000000602082015250565b600061408d602683612fe3565b915061409882614031565b604082019050919050565b600060208201905081810360008301526140bc81614080565b9050919050565b7f45524332303a20617070726f76652066726f6d20746865207a65726f2061646460008201527f7265737300000000000000000000000000000000000000000000000000000000602082015250565b600061411f602483612fe3565b915061412a826140c3565b604082019050919050565b6000602082019050818103600083015261414e81614112565b9050919050565b7f45524332303a20617070726f766520746f20746865207a65726f20616464726560008201527f7373000000000000000000000000000000000000000000000000000000000000602082015250565b60006141b1602283612fe3565b91506141bc82614155565b604082019050919050565b600060208201905081810360008301526141e0816141a4565b9050919050565b7f45524332303a207472616e736665722066726f6d20746865207a65726f20616460008201527f6472657373000000000000000000000000000000000000000000000000000000602082015250565b6000614243602583612fe3565b915061424e826141e7565b604082019050919050565b6000602082019050818103600083015261427281614236565b9050919050565b7f45524332303a207472616e7366657220746f20746865207a65726f206164647260008201527f6573730000000000000000000000000000000000000000000000000000000000602082015250565b60006142d5602383612fe3565b91506142e082614279565b604082019050919050565b60006020820190508181036000830152614304816142c8565b9050919050565b7f45524332303a207472616e7366657220616d6f756e742065786365656473206260008201527f616c616e63650000000000000000000000000000000000000000000000000000602082015250565b6000614367602683612fe3565b91506143728261430b565b604082019050919050565b600060208201905081810360008301526143968161435a565b9050919050565b7f5061757361626c653a206e6f7420706175736564000000000000000000000000600082015250565b60006143d3601483612fe3565b91506143de8261439d565b602082019050919050565b60006020820190508181036000830152614402816143c6565b9050919050565b7f5061757361626c653a2070617573656400000000000000000000000000000000600082015250565b600061443f601083612fe3565b915061444a82614409565b602082019050919050565b6000602082019050818103600083015261446e81614432565b9050919050565b600060408201905061448a60008301856131a2565b61449760208301846131a2565b9392505050565b600060a0820190506144b36000830188613260565b6144c06020830187613260565b6144cd6040830186613260565b6144da60608301856131a2565b6144e760808301846132e4565b9695505050505050565b7f4e487b7100000000000000000000000000000000000000000000000000000000600052601260045260246000fd5b600061452b826130f6565b9150614536836130f6565b925082614546576145456144f1565b5b828204905092915050565b600081905092915050565b7f1901000000000000000000000000000000000000000000000000000000000000600082015250565b6000614592600283614551565b915061459d8261455c565b600282019050919050565b6000819050919050565b6145c36145be82613256565b6145a8565b82525050565b60006145d482614585565b91506145e082856145b2565b6020820191506145f082846145b2565b6020820191508190509392505050565b60006080820190506146156000830187613260565b614622602083018661322c565b61462f6040830185613260565b61463c6060830184613260565b95945050505050565b7f4e487b7100000000000000000000000000000000000000000000000000000000600052602160045260246000fd5b7f45434453413a20696e76616c6964207369676e61747572650000000000000000600082015250565b60006146aa601883612fe3565b91506146b582614674565b602082019050919050565b600060208201905081810360008301526146d98161469d565b9050919050565b7f45434453413a20696e76616c6964207369676e6174757265206c656e67746800600082015250565b6000614716601f83612fe3565b9150614721826146e0565b602082019050919050565b6000602082019050818103600083015261474581614709565b9050919050565b7f45434453413a20696e76616c6964207369676e6174757265202773272076616c60008201527f7565000000000000000000000000000000000000000000000000000000000000602082015250565b60006147a8602283612fe3565b91506147b38261474c565b604082019050919050565b600060208201905081810360008301526147d78161479b565b9050919050565b7f45434453413a20696e76616c6964207369676e6174757265202776272076616c60008201527f7565000000000000000000000000000000000000000000000000000000000000602082015250565b600061483a602283612fe3565b9150614845826147de565b604082019050919050565b600060208201905081810360008301526148698161482d565b9050919050565b7f45524332303a206275726e2066726f6d20746865207a65726f2061646472657360008201527f7300000000000000000000000000000000000000000000000000000000000000602082015250565b60006148cc602183612fe3565b91506148d782614870565b604082019050919050565b600060208201905081810360008301526148fb816148bf565b9050919050565b7f45524332303a206275726e20616d6f756e7420657863656564732062616c616e60008201527f6365000000000000000000000000000000000000000000000000000000000000602082015250565b600061495e602283612fe3565b915061496982614902565b604082019050919050565b6000602082019050818103600083015261498d81614951565b905091905056fea2646970667358221220b6c6ec05a4d3a3e7b8669ab9e108a924840988331661b90479a5380adb4bc32764736f6c634300080d0033",
  "immutableReferences": {
    "1851": [
      {
        "length": 32,
        "start": 5082
      }
    ],
    "2497": [
      {
        "length": 32,
        "start": 8083
      }
    ],
    "2499": [
      {
        "length": 32,
        "start": 8044
      }
    ],
    "2501": [
      {
        "length": 32,
        "start": 8159
      }
    ],
    "2503": [
      {
        "length": 32,
        "start": 8192
      }
    ],
    "2505": [
      {
        "length": 32,
        "start": 8126
      }
    ]
  },
  "source": "// SPDX-License-Identifier: MIT\npragma solidity >=0.4.22 <0.9.0;\n\nimport \"../node_modules/@openzeppelin/contracts/token/ERC20/ERC20.sol\";\nimport \"../node_modules/@openzeppelin/contracts/token/ERC20/extensions/ERC20Burnable.sol\";\nimport \"../node_modules/@openzeppelin/contracts/security/Pausable.sol\";\nimport \"../node_modules/@openzeppelin/contracts/access/Ownable.sol\";\nimport \"../node_modules/@openzeppelin/contracts/token/ERC20/extensions/draft-ERC20Permit.sol\";\nimport \"../node_modules/@openzeppelin/contracts/token/ERC20/extensions/ERC20Votes.sol\";\n\ncontract WIP is\n    ERC20,\n    ERC20Burnable,\n    Pausable,\n    Ownable,\n    ERC20Permit,\n    ERC20Votes\n{\n    uint256 public postThreshold;\n    uint256 public commentThreshold;\n\n    constructor() ERC20(\"WIP\", \"WIP\") ERC20Permit(\"WIP\") {\n        _mint(msg.sender, 1000000 * 10**decimals());\n        postThreshold = 100 * 10**decimals();\n        commentThreshold = 25 * 10**decimals();\n    }\n\n    function changePostThreshold(uint256 newThreshold) public onlyOwner {\n        postThreshold = newThreshold * 10**decimals();\n    }\n\n    function changeCommentThreshold(uint256 newThreshold) public onlyOwner {\n        commentThreshold = newThreshold * 10**decimals();\n    }\n\n    function canPost(address from) public view returns (bool) {\n        return balanceOf(from) >= postThreshold;\n    }\n\n    function canComment(address from) public view returns (bool) {\n        return balanceOf(from) >= commentThreshold;\n    }\n\n    function pause() public onlyOwner {\n        _pause();\n    }\n\n    function unpause() public onlyOwner {\n        _unpause();\n    }\n\n    function mint(address to, uint256 amount) public onlyOwner {\n        _mint(to, amount);\n    }\n\n    function _beforeTokenTransfer(\n        address from,\n        address to,\n        uint256 amount\n    ) internal override whenNotPaused {\n        super._beforeTokenTransfer(from, to, amount);\n    }\n\n    // The following functions are overrides required by Solidity.\n\n    function _afterTokenTransfer(\n        address from,\n        address to,\n        uint256 amount\n    ) internal override(ERC20, ERC20Votes) {\n        super._afterTokenTransfer(from, to, amount);\n    }\n\n    function _mint(address to, uint256 amount)\n        internal\n        override(ERC20, ERC20Votes)\n    {\n        super._mint(to, amount);\n    }\n\n    function _burn(address account, uint256 amount)\n        internal\n        override(ERC20, ERC20Votes)\n    {\n        super._burn(account, amount);\n    }\n}\n",
  "sourcePath": "D:\\\\\\web3_projects\\crypto+web3 for creatives\\\\w-i-p\\contracts\\WIP.sol",
  "compiler": {
    "name": "solc",
    "version": "0.8.13+commit.abaa5c0e.Emscripten.clang"
  },
  "schemaVersion": "3.4.7",
  "updatedAt": "2022-05-19T04:26:26.762Z",
  "devdoc": {
    "kind": "dev",
    "methods": {
      "DOMAIN_SEPARATOR()": {
        "details": "See {IERC20Permit-DOMAIN_SEPARATOR}."
      },
      "allowance(address,address)": {
        "details": "See {IERC20-allowance}."
      },
      "approve(address,uint256)": {
        "details": "See {IERC20-approve}. Requirements: - `spender` cannot be the zero address."
      },
      "balanceOf(address)": {
        "details": "See {IERC20-balanceOf}."
      },
      "burn(uint256)": {
        "details": "Destroys `amount` tokens from the caller. See {ERC20-_burn}."
      },
      "burnFrom(address,uint256)": {
        "details": "Destroys `amount` tokens from `account`, deducting from the caller's allowance. See {ERC20-_burn} and {ERC20-allowance}. Requirements: - the caller must have allowance for ``accounts``'s tokens of at least `amount`."
      },
      "checkpoints(address,uint32)": {
        "details": "Get the `pos`-th checkpoint for `account`."
      },
      "decimals()": {
        "details": "Returns the number of decimals used to get its user representation. For example, if `decimals` equals `2`, a balance of `505` tokens should be displayed to a user as `5.05` (`505 / 10 ** 2`). Tokens usually opt for a value of 18, imitating the relationship between Ether and Wei. This is the value {ERC20} uses, unless this function is overridden; NOTE: This information is only used for _display_ purposes: it in no way affects any of the arithmetic of the contract, including {IERC20-balanceOf} and {IERC20-transfer}."
      },
      "decreaseAllowance(address,uint256)": {
        "details": "Atomically decreases the allowance granted to `spender` by the caller. This is an alternative to {approve} that can be used as a mitigation for problems described in {IERC20-approve}. Emits an {Approval} event indicating the updated allowance. Requirements: - `spender` cannot be the zero address. - `spender` must have allowance for the caller of at least `subtractedValue`."
      },
      "delegate(address)": {
        "details": "Delegate votes from the sender to `delegatee`."
      },
      "delegateBySig(address,uint256,uint256,uint8,bytes32,bytes32)": {
        "details": "Delegates votes from signer to `delegatee`"
      },
      "delegates(address)": {
        "details": "Get the address `account` is currently delegating to."
      },
      "getPastTotalSupply(uint256)": {
        "details": "Retrieve the `totalSupply` at the end of `blockNumber`. Note, this value is the sum of all balances. It is but NOT the sum of all the delegated votes! Requirements: - `blockNumber` must have been already mined"
      },
      "getPastVotes(address,uint256)": {
        "details": "Retrieve the number of votes for `account` at the end of `blockNumber`. Requirements: - `blockNumber` must have been already mined"
      },
      "getVotes(address)": {
        "details": "Gets the current votes balance for `account`"
      },
      "increaseAllowance(address,uint256)": {
        "details": "Atomically increases the allowance granted to `spender` by the caller. This is an alternative to {approve} that can be used as a mitigation for problems described in {IERC20-approve}. Emits an {Approval} event indicating the updated allowance. Requirements: - `spender` cannot be the zero address."
      },
      "name()": {
        "details": "Returns the name of the token."
      },
      "nonces(address)": {
        "details": "See {IERC20Permit-nonces}."
      },
      "numCheckpoints(address)": {
        "details": "Get number of checkpoints for `account`."
      },
      "owner()": {
        "details": "Returns the address of the current owner."
      },
      "paused()": {
        "details": "Returns true if the contract is paused, and false otherwise."
      },
      "permit(address,address,uint256,uint256,uint8,bytes32,bytes32)": {
        "details": "See {IERC20Permit-permit}."
      },
      "renounceOwnership()": {
        "details": "Leaves the contract without owner. It will not be possible to call `onlyOwner` functions anymore. Can only be called by the current owner. NOTE: Renouncing ownership will leave the contract without an owner, thereby removing any functionality that is only available to the owner."
      },
      "symbol()": {
        "details": "Returns the symbol of the token, usually a shorter version of the name."
      },
      "totalSupply()": {
        "details": "See {IERC20-totalSupply}."
      },
      "transfer(address,uint256)": {
        "details": "See {IERC20-transfer}. Requirements: - `recipient` cannot be the zero address. - the caller must have a balance of at least `amount`."
      },
      "transferFrom(address,address,uint256)": {
        "details": "See {IERC20-transferFrom}. Emits an {Approval} event indicating the updated allowance. This is not required by the EIP. See the note at the beginning of {ERC20}. Requirements: - `sender` and `recipient` cannot be the zero address. - `sender` must have a balance of at least `amount`. - the caller must have allowance for ``sender``'s tokens of at least `amount`."
      },
      "transferOwnership(address)": {
        "details": "Transfers ownership of the contract to a new account (`newOwner`). Can only be called by the current owner."
      }
    },
    "version": 1
  },
  "userdoc": {
    "kind": "user",
    "methods": {},
    "version": 1
  }
}